S00F0000547261666669632E7372656356
S11300000C942A000C946D010C943C000C943C005C
S11300100C943C000C943C000C943C000C943C006C
S11300200C943C000C943C000C943C000C94800414
S11300300C943C000C943C000C943C000C943C004C
S11300400C943C000C943C000C943C000C943C003C
S11300500C943C0011241FBECFE5D8E0DEBFCDBF19
S113006020E0A0E6B0E001C01D92AD36B207E1F792
S11300700E94D1020C9455080C940000CF93DF9396
S1130080CDB7DEB78FE590E02FE530E0F9012081B0
S11300902068FC01208380E00E94C50160E081E4C7
S11300A00E94D40160E081E40E94FA0161E081E4ED
S11300B00E94D40161E081E40E94FA0162E081E4DB
S11300C00E94D40162E081E40E94FA0160E082E4CB
S11300D00E94D40160E082E40E94FA0161E082E4BB
S11300E00E94D40161E082E40E94FA0162E082E4A9
S11300F00E94D40162E082E40E94FA01109264003A
S11301001092620081E0809363000000DF91CF9140
S11301100895CF92EF92FF920F931F93CF93DF93A3
S1130120CDB7DEB780916400882309F050C0809178
S11301306200882F90E081309105C1F082309105F2
S113014099F1892B09F0C0C062E081E40E94E701C3
S113015060E070E48CE995E40E94CA0462E081E402
S11301600E94FA0181E080936200AEC005E020E0C5
S113017030E04AE754E461E081E40E940D0280919A
S11301806300813031F482E0809362001092630056
S113019096C080916300882309F091C01092620098
S11301A081E0809363008BC060E081E40E94E701FA
S11301B060E070E48CE995E40E94CA0460E081E4A4
S11301C00E94FA0181E08093620000007DC080916A
S11301D06400813009F078C080916500882F90E038
S11301E08130910559F18230910509F44DC0892B74
S11301F009F06AC081E08093630062E082E40E94B7
S1130200E70160E081E40E94E70160E070E48CE9CA
S113021095E40E94CA0462E082E40E94FA0160E06C
S113022081E40E94FA0181E080936500809161007D
S1130230882309F446C01092640043C00F2EF5E0F1
S1130240CF2EF02DE12CF12C0AE714E421E041E457
S113025061E082E40E94610280916300813031F4A4
S113026082E080936500109263002DC0809163004A
S1130270882349F51092650081E08093630060E073
S113028082E40E94FA011FC01092630081E080930F
S1130290610060E082E40E94E70162E081E40E9480
S11302A0E70160E070E48CE995E40E94CA0462E02E
S11302B081E40E94FA0181E08093650005C000009A
S11302C003C0000001C000000000DF91CF911F9126
S11302D00F91FF90EF90CF9008951F920F9200908E
S11302E05F000F9211242F933F934F935F936F936B
S11302F07F938F939F93AF93BF93EF93FF93CF938A
S1130300DF93CDB7DEB780916400882349F581E09F
S11303108093640081E08093630010926100809177
S11303206200882F90E08130910549F08230910578
S113033061F0892B69F482E08093650009C081E053
S1130340809365001092630003C010926500000062
S113035062E082E40E94FA010E94C6020E94E30560
S11303600000DF91CF91FF91EF91BF91AF919F91E9
S11303708F917F916F915F914F913F912F910F904A
S113038000925F000F901F901895CF93DF931F92F8
S1130390CDB7DEB7898389810E94970380E090E01E
S11303A00F90DF91CF910895CF93DF9300D0CDB715
S11303B0DEB789836A8341E06A8189810E94DA0217
S11303C080E090E00F900F90DF91CF910895CF934C
S11303D0DF9300D0CDB7DEB789836A8341E06A81B9
S11303E089810E94C30380E090E00F900F90DF9119
S11303F0CF910895CF93DF9300D0CDB7DEB7898333
S11304006A8340E06A8189810E94C30380E090E0AE
S11304100F900F90DF91CF9108950F93CF93DF93B7
S1130420CDB7DEB728970FB6F894DEBF0FBECDBFA9
S11304308A836B832C833D834E835F830887198271
S113044088858093660019822BC06B818A810E9403
S1130450E70120E030E040E050E46C817D818E8152
S11304609F810E947806DC01CB01BC01CD010E9472
S1130470CA046B818A810E94FA0120E030E040E0E6
S113048050E46C817D818E819F810E947806DC011D
S1130490CB01BC01CD010E94CA0489818F5F89838D
S11304A0809166009981981780F280E090E0289608
S11304B00FB6F894DEBF0FBECDBFDF91CF910F9181
S11304C00895CF92EF92FF920F931F93CF93DF93F0
S11304D0CDB7DEB72A970FB6F894DEBF0FBECDBFF7
S11304E08A836B834C832D83EE82FF82088719876E
S11304F0CA868A8580936600198233C06B818A819B
S11305000E94E7016D818C810E94E70120E030E0C8
S113051040E050E46E817F81888599850E94780649
S1130520DC01CB01BC01CD010E94CA046B818A812C
S11305300E94FA016D818C810E94FA0120E030E072
S113054040E050E46E817F81888599850E94780619
S1130550DC01CB01BC01CD010E94CA0489818F5FFB
S11305608983809166009981981740F280E090E039
S11305702A960FB6F894DEBF0FBECDBFDF91CF91A0
S11305801F910F91FF90EF90CF900895CF93DF9339
S1130590CDB7DEB71092660080E090E0DF91CF9196
S11305A00895CF93DF93CDB7DEB70E943E000E943B
S11305B08900FDCFCF93DF9300D01F92CDB7DEB774
S11305C089836A834B838B81813009F04FC0898191
S11305D0882F90E082349105E1F08434910571F123
S11305E08134910509F03FC08AE390E02AE330E0CA
S11305F0F9012081622F2A81422F50E021E030E06E
S113060002C0220F331F4A95E2F7262BFC012083F8
S113061086C087E390E027E330E0F9012081622F70
S11306202A81422F50E021E030E002C0220F331F24
S11306304A95E2F7262BFC01208371C081E390E008
S113064021E330E0F9012081622F2A81422F50E01A
S113065021E030E002C0220F331F4A95E2F7262B37
S1130660FC0120835CC081E090E05BC08B81882327
S113067009F052C08981882F90E082349105E9F015
S11306808434910581F18134910509F042C08AE3F3
S113069090E02AE330E0F9012081622F2A81422F81
S11306A050E021E030E002C0220F331F4A95E2F708
S11306B020952623FC01208332C087E390E027E3C2
S11306C030E0F9012081622F2A81422F50E021E09D
S11306D030E002C0220F331F4A95E2F7209526230B
S11306E0FC0120831CC081E390E021E330E0F901A8
S11306F02081622F2A81422F50E021E030E002C0A5
S1130700220F331F4A95E2F720952623FC0120830C
S113071006C081E090E005C081E090E002C080E086
S113072090E00F900F900F90DF91CF910895CF93A9
S1130730DF931F92CDB7DEB789838981882F90E03C
S1130740892BD9F440E062E084E40E94DA0285E572
S113075090E025E530E0F90120812360FC0120834D
S11307608BE590E02BE530E0F90120812064FC0169
S11307702083000080E090E002C081E090E00F90D0
S1130780DF91CF910895CF93DF9300D01F92CDB71F
S1130790DEB789836A834B838B81813009F04FC034
S11307A08981882F90E082349105E1F084349105A9
S11307B071F18134910509F03FC08BE390E02BE3A4
S11307C030E0F9012081622F2A81422F50E021E09C
S11307D030E002C0220F331F4A95E2F7262BFC01BA
S11307E0208386C088E390E028E330E0F90120818B
S11307F0622F2A81422F50E021E030E002C0220F14
S1130800331F4A95E2F7262BFC01208371C082E353
S113081090E022E330E0F9012081622F2A81422F07
S113082050E021E030E002C0220F331F4A95E2F786
S1130830262BFC0120835CC081E090E05BC08B81AF
S1130840882309F052C08981882F90E08234910571
S1130850E9F08434910581F18134910509F042C0B5
S11308608BE390E02BE330E0F9012081622F2A81B1
S1130870422F50E021E030E002C0220F331F4A959E
S1130880E2F720952623FC01208332C088E390E020
S113089028E330E0F9012081622F2A81422F50E0C1
S11308A021E030E002C0220F331F4A95E2F7209581
S11308B02623FC0120831CC082E390E022E330E085
S11308C0F9012081622F2A81422F50E021E030E09B
S11308D002C0220F331F4A95E2F720952623FC011C
S11308E0208306C081E090E005C081E090E002C072
S11308F080E090E00F900F900F90DF91CF910895DA
S11309001F920F9200905F000F9211242F938F93E8
S11309109F93AF93BF93EF93FF93CF93DF93CDB7A1
S1130920DEB78091670090916800A0916900B09152
S11309306A00892B8A2B8B2BD1F0809167009091D0
S11309406800A0916900B0916A000197A109B109FA
S11309508093670090936800A0936900B0936A0045
S113096082E590E020916C00FC01208303C081E0CB
S113097080936B000000DF91CF91FF91EF91BF91C5
S1130980AF919F918F912F910F9000925F000F90E4
S11309901F901895CF92DF92EF92FF92CF93DF933F
S11309A0CDB7DEB72E970FB6F894DEBF0FBECDBF1E
S11309B06B877C878D879E8710926B0083E590E020
S11309C023E530E0F90120812F7BFC01208383E5BE
S11309D090E023E530E0F9012081277FFC012083AA
S11309E080E094E09A83898389819A81CC01A0E094
S11309F0B0E0BC01CD010E941907DC01CB0120E06D
S1130A0034E244E75BE4BC01CD010E947806DC01DA
S1130A10CB018B839C83AD83BE8320E030E040E830
S1130A2053E46B817C818D819E810E94E807DC0107
S1130A30CB018F839887A987BA872FE632E143E8F1
S1130A405AE36B857C858D859E850E94E807DC01D1
S1130A50CB012F81388549855A85BC01CD010E947F
S1130A607806DC01CB01BC01CD010E946106DC01EA
S1130A70CB01BC01CD010E94EA06DC01CB018093CD
S1130A80670090936800A0936900B0936A002FE612
S1130A9032E143E85AE36B857C858D859E850E940F
S1130AA0E807DC01CB012B813C814D815E81BC01D7
S1130AB0CD010E947806DC01CB016C017D0180919F
S1130AC0670090916800A0916900B0916A00BC0130
S1130AD0CD010E941907DC01CB019C01AD01C701C6
S1130AE0B6010E947806DC01CB019C01AD0160E0F7
S1130AF070E080E893E40E94F405DC01CB01BC01C2
S1130B00CD010E94EA06DC01CB0180936C0082E5F2
S1130B1090E020916C00FC01208389E590E029E5B8
S1130B2030E0F90120812160FC01208383E590E01D
S1130B3023E530E0F90120812460FC01208383E572
S1130B4090E023E530E0F90120812D7FFC01208332
S1130B5083E590E023E530E0F90120812160FC0188
S1130B60208303C081E08093600080916B00882320
S1130B70C9F383E590E023E530E0F90120812B7F80
S1130B80FC01208383E590E023E530E0F901208136
S1130B902D7FFC01208383E590E023E530E0F9011B
S1130BA020812E7FFC01208380E090E02E960FB6FA
S1130BB0F894DEBF0FBECDBFDF91CF91FF90EF90D1
S1130BC0DF90CF900895CF93DF93CDB7DEB7109227
S1130BD06700109268001092690010926A0080E029
S1130BE090E0DF91CF9108955058BB27AA270E9427
S1130BF00C060C9496070E94880738F00E948F0711
S1130C0020F039F49F3F19F426F40C9485070EF470
S1130C10E095E7FB0C945607E92F0E94A70758F3C9
S1130C20BA17620773078407950720F079F4A6F5CD
S1130C300C94E1070EF4E0950B2EBA2FA02D0B01B6
S1130C40B90190010C01CA01A0011124FF27591B0D
S1130C5099F0593F50F4503E68F11A16F040A22F13
S1130C60232F342F4427585FF3CF46953795279584
S1130C70A795F0405395C9F77EF41F16BA0B620B83
S1130C80730B840BBAF09150A1F0FF0FBB1F661FCA
S1130C90771F881FC2F70EC0BA0F621F731F841F0D
S1130CA048F4879577956795B795F7959E3F08F033
S1130CB0B0CF9395880F08F09927EE0F97958795F5
S1130CC008950E94C90790F09F3748F4911116F4D3
S1130CD00C94E20760E070E080E89FE3089526F05A
S1130CE01B16611D711D811D0C945C070C94770704
S1130CF00E948C060C9496070E948F0758F00E945D
S1130D00880740F029F45F3F29F00C9456075111ED
S1130D100C94E2070C9485070E94A70768F39923B3
S1130D20B1F3552391F3951B550BBB27AA276217E3
S1130D307307840738F09F5F5F4F220F331F441FF0
S1130D40AA1FA9F335D00E2E3AF0E0E832D0915024
S1130D505040E695001CCAF72BD0FE2F29D0660F11
S1130D60771F881FBB1F261737074807AB07B0E854
S1130D7009F0BB0B802DBF01FF2793585F4F3AF05A
S1130D809E3F510578F00C9456070C94E2075F3FA0
S1130D90E4F3983ED4F3869577956795B795F795E0
S1130DA09F5FC9F7880F911D9695879597F90895C8
S1130DB0E1E0660F771F881FBB1F62177307840764
S1130DC0BA0720F0621B730B840BBA0BEE1F88F773
S1130DD0E09508950E94AF0788F09F5798F0B92FC7
S1130DE09927B751B0F0E1F0660F771F881F991F5C
S1130DF01AF0BA95C9F714C0B13091F00E94E10716
S1130E00B1E008950C94E107672F782F8827B85F25
S1130E1039F0B93FCCF3869577956795B395D9F7B3
S1130E203EF490958095709561957F4F8F4F9F4FBD
S1130E300895E89409C097FB3EF4909580957095C9
S1130E4061957F4F8F4F9F4F9923A9F0F92F96E912
S1130E50BB279395F695879577956795B795F11187
S1130E60F8CFFAF4BB0F11F460FF1BC06F5F7F4F24
S1130E708F4F9F4F16C0882311F096E911C0772336
S1130E8021F09EE8872F762F05C0662371F096E83F
S1130E90862F70E060E02AF09A95660F771F881F0E
S1130EA0DAF7880F9695879597F9089597F99F67CC
S1130EB080E870E060E00895882371F4772321F0DE
S1130EC09850872B762F07C0662311F499270DC0FD
S1130ED09051862B70E060E02AF09A95660F771F98
S1130EE0881FDAF7880F9695879597F908959F3F9D
S1130EF031F0915020F4879577956795B795880FD1
S1130F00911D9695879597F908959FEF80EC089524
S1130F1000240A94161617061806090608950024D4
S1130F200A9412161306140605060895092E03944E
S1130F30000C11F4882352F0BB0F40F4BF2B11F4C2
S1130F4060FF04C06F5F7F4F8F4F9F4F089557FD21
S1130F509058440F551F59F05F3F71F04795880F23
S1130F6097FB991F61F09F3F79F0879508951216BA
S1130F7013061406551FF2CF4695F1DF08C0161666
S1130F8017061806991FF1CF869571056105089417
S1130F9008950E94AF07A0F0BEE7B91788F4BB27F5
S1130FA09F3860F41616B11D672F782F8827985F35
S1130FB0F7CF869577956795B11D93959639C8F3C4
S1130FC00895E894BB2766277727CB0197F90895FE
S1130FD00E94FB070C9496070E94880738F00E9431
S1130FE08F0720F0952311F00C9456070C94850775
S1130FF011240C94E2070E94A70770F3959FC1F394
S1131000950F50E0551F629FF001729FBB27F00DB2
S1131010B11D639FAA27F00DB11DAA1F649F662707
S1131020B00DA11D661F829F2227B00DA11D621F56
S1131030739FB00DA11D621F839FA00D611D221F10
S1131040749F3327A00D611D231F849F600D211DF4
S1131050822F762F6A2F11249F5750409AF0F1F077
S113106088234AF0EE0FFF1FBB1F661F771F881FE0
S113107091505040A9F79E3F510580F00C945607BB
S11310800C94E2075F3FE4F3983ED4F3869577959A
S11310906795B795F795E7959F5FC1F7FE2B880F86
S11110A0911D9695879597F90895F894FFCFC2
S9030000FC
